:0400000057EF00F0C6
:100008002B002B002B002B002B002B002B002B0090
:10001800C60A2B002B002B002B002B002B002B00DB
:100028002B002B002B002B002B002B002B002B0070
:100038002B002B002B002B002B002B002B002B0060
:100048002B002B002B002B002B002B002B002B0050
:100058002B002B002B002B002B002B002B002B0040
:100068002B002B002B002B002B002B002B002B0030
:100078002B002B002B002B002B002B002B002B0020
:100088002B002B002B002B002B002B002B002B0010
:100098002B002B002B002B002B002B002B002B0000
:0A00A8002B002B00FF00A6EF17F05D
:1020000000616E676C653A20466C61742020202068
:1020100020202000616E676C653A205368616B6513
:1020200020202020202000616E676C653A205469D2
:102030006C745F4C656674202000616E676C653A55
:102040002054696C745F52696768742000256C6461
:102050002E2530346C642058206D2F733220002DD3
:10206000256C642E2530346C642058206D2F73321B
:1020700000003050D96EDA6A6F007FFFF6FF200E45
:10208000F76E000EF86E0800F550250AD8A44BEF45
:1020900010F04DEF10F034EF11F03050D96EDA6AD5
:1020A000DF2A546A000E536E53C057F055685668C5
:1020B000366A78EF10F057823050D96EDA6ADF2A2C
:1020C00078EF10F0010E366E78EF10F03050D96EC8
:1020D000DA6A6F007FFFF6FF200EF76E000EF86ED3
:1020E0000800F550300AD8B45BEF10F062EF10F042
:1020F0003650D8B47EEF10F080EF10F066EF10F09D
:1021000030C008F031C009F099EC14F008C053F069
:1021100009C054F054BE91EF10F08FEF10F096EF1D
:1021200010F05780536C541ED8B0542A3050D96EDA
:10213000DA6ADF50386E6000E3F0F6FF200EF76ECB
:10214000000EF86E08006F00D4FF37F0B2EF10F009
:10215000382AC1EF10F0690E376EC1EF10F0376A00
:10216000C1EF10F03750640AD8B4ABEF10F00D0A8D
:10217000D8B4ABEF10F0050AD8B4A8EF10F0AFEF69
:1021800010F06000E3F0F6FF200EF76E000EF86E20
:102190000800F550640AD8B4D0EF10F0D2EF10F078
:1021A00010EF11F06000E3F0F6FF200EF76E000E66
:1021B000F86E0800F550690AD8A4E1EF10F0E3EFDB
:1021C00010F02EEF11F010EF11F03150D96EDA6AE5
:1021D000DF50DF2ADF2AD96EDA6A6F0078FF32F02B
:1021E0006F0074FF33F0000E33BEFF0E346E356E99
:1021F0001BEF11F03150D96EDA6A040EDF26DF5C76
:10220000D96EDA6A6F0078FF32F06F0078FF33F032
:102210006F0078FF34F06F0078FF35F01BEF11F09E
:102220003750690AD8B4E5EF10F0050AD8B4FAEFD0
:1022300010F01BEF11F03050D96EDA6A3828DF6EDB
:102240002FC022F032C023F033C024F034C025F078
:1022500035C026F032EC12F048EF11F03050D96E54
:10226000DA6ADF2A48EF11F03050D96EDA6A6F006F
:102270007FFFF6FF200EF76E000EF86E0800F55097
:10228000086E096A2FC00AF0F4EC14F02EEF11F07A
:102290001200000E00019B6F000E9C6F000E9D6FE0
:1022A000000E9E6FA8EC16F0C9EC17F00DEC18F0BC
:1022B0007AEC17F03B0ECDEC16F00BC099F00CC089
:1022C0009AF099C008F09AC009F0000E09BEFF0EFE
:1022D0000A6E0B6E130E0C6E7F0E0D6E010E0E6EDF
:1022E000000E0F6ECCEC15F008C014F009C015F00C
:1022F0000AC016F00BC017F0000E186E400E196ED3
:10230000000E1A6E000E1B6E9FEC13F014C0A3F0AB
:1023100015C0A4F016C0A5F017C0A6F000019B518F
:10232000A35D9F6F9C51A459A06F9D51A559A16FAA
:102330009E51A659A26FA2BFA2EF11F0A0EF11F01B
:10234000AAEF11F0A21FA11FA01F9F6D000EA023D6
:10235000A123A223A2BFB9EF11F0A251A1110BE159
:10236000B90E9F5D880EA059D8A0B9EF11F0BBEF50
:1023700011F0C3EF11F0840E3D6E140E3E6E62EC50
:1023800017F0FCEF11F0A6BFD2EF11F0A651A51186
:102390000BE1210EA35D4E0EA459D8A0D2EF11F08F
:1023A000D4EF11F0DCEF11F0840E3D6E3A0E3E6E6C
:1023B00062EC17F0FCEF11F0A6AFECEF11F0E00EBD
:1023C000A35DB10EA459FF0EA559FF0EA659D8B0B2
:1023D000ECEF11F0EEEF11F0F6EF11F0840E3D6E20
:1023E000270E3E6E62EC17F0FCEF11F0840E3D6E8E
:1023F000010E3E6E62EC17F06F0E0001606FA3C01D
:1024000061F0A4C062F0A5C063F0A6C064F0F8EC6F
:1024100012F0EFEC17F0000E0A6E840E0B6E010E38
:1024200049EC17F0000E0A6E6F0E0B6E020E49ECAF
:1024300017F0A3C09BF0A4C09CF0A5C09DF0A6C05F
:102440009EF0030E00016E6F8A0E6D6F550EE82E22
:10245000FED76D2FFCD76E2FFAD700D05AEF11F0B0
:1024600057EF00F0010E296E26BE39EF12F03CEF57
:1024700012F0010E3DEF12F0000E2C6E53C02AF048
:1024800054C02BF02C50D8B448EF12F04AEF12F0A1
:102490005FEF12F02A06D8A02B062C50D8A453EFD9
:1024A00012F055EF12F05AEF12F0286A2B0E276E39
:1024B0005DEF12F0286A2D0E276E27C02CF02E6AD1
:1024C0001F0E2D6E0001C66BA6EF12F02D06D8A0D0
:1024D0002E062D50A70FD96EDA6A23C008F024C04B
:1024E00009F025C00AF026C00BF00A0E0C6E000E93
:1024F0000D6E000E0E6E000E0F6E24EC14F008C070
:1025000012F009C013F02FEC17F01250300FDF6EED
:10251000296A2A06D8A02B0623C014F024C015F07F
:1025200025C016F026C017F00A0E186E000E196EA0
:10253000000E1A6E000E1B6E9FEC13F014C023F0F9
:1025400015C024F016C025F017C026F02EBEB1EF3E
:1025500012F02E5008E12D04D8A0B1EF12F0B3EF25
:1025600012F0DAEF12F02350241025102610D8A410
:10257000BCEF12F0BEEF12F066EF12F02950D8A4B3
:10258000C4EF12F0C6EF12F066EF12F02BBED1EFDF
:1025900012F02B5008E12A04D8A0D1EF12F0D3EFAB
:1025A00012F0DAEF12F057B2D8EF12F0DAEF12F0C1
:1025B00066EF12F02C50D8B4E0EF12F0E2EF12F018
:1025C000ECEF12F02D06D8A02E062D50A70FD96ED5
:1025D000DA6A6000B3F0DFFF22C015F02D50A70FBC
:1025E000166E2AC017F02BC018F04AEC15F0120036
:1025F000000164BF00EF13F0FEEF12F054EF13F090
:10260000641F631F621F616D000E622363236423D6
:1026100061C014F062C015F063C016F064C017F01A
:10262000100E186E270E196E000E1A6E000E1B6E1D
:102630009FEC13F014C065F015C066F016C067F08B
:1026400017C068F061C008F062C009F063C00AF00A
:1026500064C00BF0100E0C6E270E0D6E000E0E6E89
:10266000000E0F6E24EC14F008C069F009C06AF087
:102670000AC06BF00BC06CF060C03DF05F0E3E6EA8
:1026800065C03FF066C040F067C041F068C042F0EE
:1026900069C043F06AC044F06BC045F06CC046F0BE
:1026A00062EC17F09EEF13F061C014F062C015F0F9
:1026B00063C016F064C017F0100E186E270E196E66
:1026C000000E1A6E000E1B6E9FEC13F014C065F026
:1026D00015C066F016C067F017C068F061C008F05A
:1026E00062C009F063C00AF064C00BF0100E0C6EFB
:1026F000270E0D6E000E0E6E000E0F6E24EC14F001
:1027000008C069F009C06AF00AC06BF00BC06CF039
:1027100060C03DF04D0E3E6E65C03FF066C040F0BB
:1027200067C041F068C042F069C043F06AC044F03D
:102730006BC045F06CC046F062EC17F012001D6AE9
:102740001BBEA7EF13F0A5EF13F0B1EF13F01B1EA4
:102750001A1E191E186C000E19221A221B22010EB5
:102760001D6E17BEB8EF13F0B6EF13F0C2EF13F003
:10277000171E161E151E146C000E15221622172287
:10278000010E1D1A000E1E6E000E1F6E000E206E32
:10279000000E216E185019101A101B10D8B4D3EF68
:1027A00013F0D5EF13F00BEF14F0010E1C6EDFEFFA
:1027B00013F0D890183619361A361B361C2A1BAE61
:1027C000E4EF13F0E6EF13F0D9EF13F0D8901E36D4
:1027D0001F36203621361850145C195015581A50DF
:1027E00016581B501758D8A0F8EF13F0FAEF13F053
:1027F00003EF14F01850145E1950155A1A50165A57
:102800001B50175A1E80D8901B321A3219321832B8
:102810001C2EE6EF13F01D50D8B411EF14F013EF97
:1028200014F01BEF14F0211E201E1F1E1E6C000E44
:102830001F22202221221EC014F01FC015F020C02C
:1028400016F021C017F01200116A0BBE2CEF14F025
:102850002AEF14F036EF14F00B1E0A1E091E086C46
:10286000000E09220A220B22010E116E0FBE3DEF4F
:1028700014F03BEF14F045EF14F00F1E0E1E0D1E6A
:102880000C6C000E0D220E220F220C500D100E109B
:102890000F10D8B44EEF14F050EF14F080EF14F096
:1028A000010E106E5AEF14F0D8900C360D360E361D
:1028B0000F36102A0FAE5FEF14F061EF14F054EFF3
:1028C00014F00C50085C0D5009580E500A580F5067
:1028D0000B58D8A06EEF14F070EF14F078EF14F0EE
:1028E0000C50085E0D50095A0E500A5A0F500B5AE0
:1028F000D8900F320E320D320C32102E61EF14F0E0
:102900001150D8B486EF14F088EF14F090EF14F063
:102910000B1E0A1E091E086C000E09220A220B2239
:1029200008C008F009C009F00AC00AF00BC00BF09B
:1029300012000E6A000E0D6E0850D96EDA6A6F0032
:102940007FFFF6FF200EF76E000EF86E0800F550C0
:102950002A0AD8A4AEEF14F0B0EF14F0D9EF14F0B7
:102960000850D96EDA6ADF2A0950D96EDA6A020E87
:10297000DF26DF5CD96EDA6A6F0078FF0DF06F003A
:1029800078FF0EF0EFEF14F00A0E0D026F00CCFF8F
:102990000AF06F00D0FF0BF00E02F3500B260C5024
:1029A0000A240D6E000E0B200E6E0850D96EDA6AE6
:1029B000DF2A0850D96EDA6A6F007FFFF6FF200E1B
:1029C000F76E000EF86E0800F550D00F0C6E090E71
:1029D0000C64EDEF14F0EFEF14F0C4EF14F00DC041
:1029E00008F00EC009F012000A50D8B4FAEF14F043
:1029F000FCEF14F004EF15F00A50D8A402EF15F024
:102A000004EF15F009EF15F0085019EC18F049EF34
:102A100015F00A50D96EDA6A090ED926DE50DE109A
:102A2000D8B415EF15F017EF15F030EF15F00A5088
:102A3000D96EDA6A090ED9260A50E16EE26A020EF0
:102A4000E126DE50E65CE650800A0F6EDE50800A1A
:102A50000F58D8B02EEF15F030EF15F049EF15F004
:102A60000A50D96EDA6A020ED926DF500B6E0A5070
:102A7000D96EDA6ADF500B24D96EDA6A600023F06F
:102A8000DFFF0A50D96EDA6A020ED926DE2A000E5E
:102A9000DD22120057A04FEF15F051EF15F057EF60
:102AA00015F016C010F015C011F012EC17F018BE9A
:102AB0005EEF15F05CEF15F061EF15F0186A000E8F
:102AC000176E1B6A000E1A6E6FEF15F0096A200E62
:102AD000086E15C00AF0F4EC14F01A4A1B2A1750BD
:102AE0001A5C1B50800A196E1850800A1958D8A019
:102AF0007CEF15F07EEF15F066EF15F057B083EF21
:102B000015F085EF15F08BEF15F016C010F015C01D
:102B100011F012EC17F012003901A1911A0E046E97
:102B2000F80EE82EFED7042EFCD700D0CDB69BEFD2
:102B300015F09DEF15F0CBEF15F0FAEC17F0076AE2
:102B4000000E066EBD84030E056E8A0E046E560ED0
:102B5000E82EFED7042EFCD7052EFAD7BD94030E1F
:102B6000056E8A0E046E560EE82EFED7042EFCD794
:102B7000052EFAD7064A072A07BEC8EF15F00750F8
:102B800009E10A0E065CD8A0C8EF15F0CAEF15F0EF
:102B9000A2EF15F0FF001100000E106E000E116E76
:102BA000000E126E000E136E08A0D9EF15F0DBEFC9
:102BB00015F0E3EF15F00C5010260D5011220E50B9
:102BC00012220F501322D8900C360D360E360F36C7
:102BD000D8900B320A3209320832085009100A1014
:102BE0000B10D8A4F6EF15F0F8EF15F0D4EF15F0B0
:102BF00010C008F011C009F012C00AF013C00BF0A9
:102C00001200086E096AC4880A6AD8900936C48618
:102C100015EC18F0CCA80FEF16F011EF16F012EF2C
:102C200016F00980C49615EC18F00A2A070E0A64FB
:102C30001CEF16F01EEF16F005EF16F00850D8B492
:102C400024EF16F026EF16F029EF16F0C4982AEFBD
:102C500016F0C488C48615EC18F0C496C48815EC28
:102C600018F009501200086E096A08AE3AEF16F023
:102C70003CEF16F03FEF16F0C48840EF16F0C49812
:102C8000C48615EC18F0C49615EC18F0D8900836E8
:102C9000092A070E09644FEF16F051EF16F035EFD1
:102CA00016F0C488C48615EC18F0CC50C49615EC08
:102CB00018F01200096E600027F0BBFFBD90BD82C6
:102CC0000000BD920904D8B468EF16F06AEF16F060
:102CD00073EF16F0020E0918D8A471EF16F073EF17
:102CE00016F07CEF16F0030E086E980EE82EFED755
:102CF000082EFCD780EF16F0100EE82EFED700D07D
:102D00001200026E60000BF0BBFFBD90BD820000A0
:102D1000BD920204D8B48FEF16F091EF16F09AEF3F
:102D200016F0020E0218D8A498EF16F09AEF16F0DB
:102D3000A3EF16F0030E016E980EE82EFED7012EBB
:102D4000FCD7A7EF16F0100EE82EFED700D0120029
:102D50003A01506B706BC36AFC0EC516BB6AFC0E61
:102D6000BD161A0E0A6EF80EE82EFED70A2EFCD7F4
:102D700000D0380E5AEC16F00C0E5AEC16F0060E77
:102D80005AEC16F0010E5AEC16F0030E0A6E980E6D
:102D9000E82EFED70A2EFCD712000F6EE4EC17F0D7
:102DA000D00E33EC16F00F5033EC16F0E4EC17F0C5
:102DB000D10E33EC16F0010E01EC16F0106E000E81
:102DC00001EC16F0116E05EC18F0115010C00DF06A
:102DD0000E6A0DC00EF00D6A0D100B6E0E500C6ECB
:102DE00012003AC03CF0FDEF16F039C02FF03C0E57
:102DF000306E3BC031F039EC10F06000F3F0F6FFBC
:102E0000200EF76E000EF86E0800F5500009D8A4E9
:102E10000CEF17F00EEF17F0F5EF16F03A6A000E10
:102E2000396E1200146A000E136E20EF17F012C0F4
:102E300008F0096A11C00AF0F4EC14F0134A142ADD
:102E400010501324D96EDA6ADF50126E1250D8A4D3
:102E50002CEF17F02EEF17F017EF17F0120013BE3C
:102E600034EF17F036EF17F03CEF17F012C012F006
:102E700013C013F048EF17F012C014F013C015F090
:102E8000141E151E144A152A14C012F015C013F092
:102E900012000C6E0C04D8A450EF17F052EF17F08C
:102EA00057EF17F00A50800F0D6E5AEF17F00A50C7
:102EB000C00F0D6E0D505AEC16F00BC009F091ECDE
:102EC00017F012003F0E476E3DC048F04B6A000EEF
:102ED0004A6E526A000E516E480E396E3EC03AF08C
:102EE000470E3B6EF1EC16F03D504A24D96EDA6A7B
:102EF000DF6A1200820E0C6EDE0EE82EFED70C2E5C
:102F0000FCD7000E0A6E6B0EBAEC17F0000E0A6EBC
:102F10001C0EBAEC17F0000E0A6E1B0EBAEC17F07E
:102F200012009AEF17F00950D96EDA6ADF50D7EC29
:102F300017F0092A0950D96EDA6ADF50D8A4A3EF36
:102F400017F0A5EF17F093EF17F0120000EEA7F0BF
:102F5000200EEE6AE806FDE1576A566A556A546A21
:102F6000536A080ED56E000ED66E000ED76E0001A5
:102F700049EF11F00B6EE4EC17F0D00E33EC16F0C5
:102F80000B5033EC16F00A5033EC16F005EC18F049
:102F900012003A017097C5867095C594BD941B0EBA
:102FA000C06FD2903901A1919181D28E1200086E2A
:102FB000600023F0BBFFBD80BD820000BD92100EFB
:102FC000E82EFED700D01200C488C48615EC18F095
:102FD000C49815EC18F0C49615EC18F01200010E08
:102FE0005AEC16F0030E0A6E980EE82EFED70A2E43
:102FF000FCD71200010E81EC16F0030E036E980E42
:10300000E82EFED7032EFCD71200C498C48615EC18
:1030100018F0C48815EC18F012003A016097609916
:10302000BC96BC98C486C488120000D000D00000B2
:043030001200120078
:020000040030CA
:0A000000F9FFFFFF9FFFFFDFFFFF86
:00000001FF
