:10002000C56A0F0E206E0A0E20BE206E2064206E60
:100030002D0E2060206E20C060F00A0E612B6061E2
:10004000605F6061FBE2FB0E216E0A0E21BE7269E9
:1000500021C070F021BE706D706534EF00F0712B1F
:100060007061705F7061FBE221BE43EF00F0FB0E38
:1000700020623DEF00F04BEF00F0206447EF00F00E
:10008000206043EF00F0010E226E4FEF00F0020EF1
:10009000226E4FEF00F0000E226E4FEF00F0600076
:0600A0008BF0BDFF000E15
:020000040030CA
:0A000000F8FFFFFF9FFFFFFFFFFF67
:00000001FF
