:0400000010EF00F00D
:10002000206A6ED877D8200EF76EF86ABB6ABEEFEA
:1000300000F07AD8CBB0A4EF00F0CBB2AFEF00F075
:0400400019EF00F0C4
:100100003F01CD6A3F01BD6A3A01706B3F01000EAD
:10011000C56E12003F01CB6A3F01BB6A3A01506BCA
:100120003F01030EC36E1200030E216EFF0E226EFE
:10013000FF0E236E232E9AEF00F0222E98EF00F090
:10014000212E96EF00F01200CBB2BBEF00F0202A78
:10015000100E2062BEEF00F0206ABEEF00F0CBB0C0
:10016000BBEF00F0205203E02006BEEF00F00F0EC0
:10017000206EBEEF00F0206ABEEF00F0600083F05A
:0E018000F6FF08006F00D7FFBDFF19EF00F07B
:102000003F065B4F666D7D077F67777C395E797130
:020000040030CA
:0A000000F8FFFFFF9FFFFFFFFFFF67
:00000001FF
