:04000000FEEFFFF020
:1020000000536572766F3A3930204445504C4F5931
:1020100000536572766F3A203020534146450044A4
:102020006973743A206E6F206563686F0053746142
:102030007274696E672E2E2E00446973743A2533CC
:102040007520636D004169726261672044656D6F40
:1020500000004C6AB5EC16F02CEC16F059EC16F0BA
:1020600077EC15F097EC16F081EC16F04BEC16F0CF
:1020700067EC16F0000E036E000E18EC16F0450E1D
:10208000026E0250D8A4200E036E10EC14F0000E65
:10209000036E010E18EC16F02D0E026E0250D8A43D
:1020A000200E036E10EC14F0060E3A6E130E396E0D
:1020B000AE0EE82EFED7392EFCD73A2EFAD75AECC0
:1020C00012F008C04DF009C04EF04C50D8A46BEF90
:1020D00010F06DEF10F07CEF10F04E5007E10B0E9A
:1020E0004D5CD8B076EF10F078EF10F07CEF10F088
:1020F000010E4C6E90EF10F04C50D8B482EF10F0FF
:1021000084EF10F090EF10F04E5009E10D0E4D5C91
:10211000D8A08DEF10F08FEF10F090EF10F04C6A18
:102120004C50D8B496EF10F098EF10F09FEF10F0ED
:10213000026A160E016E8DEC16F0A4EF10F0026A22
:10214000320E016E8DEC16F0000E036E000E18ECD0
:1021500016F0E70E4D1807E1030E4E18D8A4B3EFA2
:1021600010F0B5EF10F0BFEF10F01F0E026E02502E
:10217000D8A4200E036E10EC14F0CEEF10F03B0E3E
:10218000296E390E2A6E4DC02BF04EC02CF000EC9B
:1021900016F03B0E026E036A10EC14F0000E036E94
:1021A000010E18EC16F04C50D8B4D9EF10F0DBEF5C
:1021B00010F0E5EF10F0010E026E0250D8A4200ED0
:1021C000036E10EC14F0EDEF10F0110E026E0250E1
:1021D000D8A4200E036E10EC14F04DC028F04EC0B1
:1021E00029F02B6A640E2A6E11EC15F05FEF10F0E7
:1021F000FEEFFFF01E50D96EDA6A6F007FFFF6FF28
:10220000200EF76E000EF86E0800F550250AD8A4CF
:102210000CEF11F00EEF11F079EF11F01E50D96EA6
:10222000DA6ADF2A506A000E4F6E4FC055F05168CF
:1022300052681EC001F01FC002F0B6EC12F001C0DF
:102240004FF002C050F050BE2AEF11F028EF11F00D
:102250002FEF11F055804F6C501ED8B0502A1E50F1
:10226000D96EDA6ADF50246E600093F0F6FF200E1C
:10227000F76E000EF86E0800F550750AD8A443EF0B
:1022800011F045EF11F073EF11F01F50D96EDA6ABB
:10229000020EDF26DF5CD96EDA6A6F0078FF20F06D
:1022A0006F0078FF21F01E50D96EDA6A2428DF6EA5
:1022B00064EF11F01DC015F020C016F021C017F01A
:1022C00011EC13F08DEF11F0600093F0F6FF200E8B
:1022D000F76E000EF86E0800F550750AD8B45AEF84
:1022E00011F073EF11F01E50D96EDA6ADF2A8DEF0C
:1022F00011F01E50D96EDA6A6F007FFFF6FF200ED4
:10230000F76E000EF86E0800F550016E026A1DC0EF
:1023100003F068EC13F073EF11F0120020C01AF014
:1023200021C01BF0FBEC11F01AC026F01BC027F0F7
:1023300026502710D8A49FEF11F0A1EF11F0A8EFBD
:1023400011F0BD9A566A546A000E536EFAEF11F0FE
:10235000215007E10B0E205CD8B0B1EF11F0B3EFC4
:1023600011F0BBEF11F0BD8A010E566E546A000EDB
:10237000536EFAEF11F02250532623505422565038
:10238000D8B4C5EF11F0C7EF11F0D6EF11F05450EB
:1023900009E11E0E535CD8A0D0EF11F0D2EF11F07E
:1023A000FAEF11F0BD9A566AA3EF11F0275009E138
:1023B0001F0E265CD8A0DFEF11F0E1EF11F0E9EF7E
:1023C00011F0E20E2624246EFF0E2720256EECEF7E
:1023D00011F0256A0A0E246E2450535C255054587F
:1023E000D8A0F5EF11F0F7EF11F0FAEF11F0BD8A78
:1023F000B4EF11F01200E70E1A1809E1030E1B18D2
:10240000D8B405EF12F007EF12F012EF12F01B50E4
:1024100009E1320E1A5CD8A010EF12F012EF12F0A0
:1024200017EF12F01B6A000E1A6E59EF12F01B50D4
:1024300007E10B0E1A5CD8B020EF12F022EF12F079
:1024400027EF12F01B6A500E1A6E59EF12F0F60EBB
:102450001A241C6EFF0E1B201D6E1CC001F01DC037
:1024600002F0036A046A6C0E056E020E066E000E20
:10247000076E000E086EDCEC14F001C00DF002C017
:102480000EF003C00FF004C010F0280E116E000E05
:10249000126E000E136E000E146EBEEC13F0500E92
:1024A0000D241E6E000E0E201F6E1EC01AF01FC0DF
:1024B0001BF01200BD9600D0BD86030EE82EFED79D
:1024C0000000BD96750E0D6E300E0C6E7BEF12F097
:1024D0000C500D10D8A46FEF12F071EF12F077EFDF
:1024E00012F0030E096EE70E086EB5EF12F00C063F
:1024F000D8A00D060000CDA880EF12F082EF12F0F8
:1025000068EF12F0026A000E016EAFEC16F0B280B6
:102510009AEF12F074EC16F0310E015C750E025851
:10252000D8A095EF12F097EF12F09AEF12F0B29058
:1025300071EF12F0CDB89FEF12F0A1EF12F08AEF19
:1025400012F0B29074EC16F001C00AF002C00BF069
:102550000AC001F00BC002F0046A3A0E036EA3EC4D
:1025600014F001C008F002C009F01200076A000E62
:10257000066E0150D96EDA6A6F007FFFF6FF200EFB
:10258000F76E000EF86E0800F5502A0AD8A4CBEFBB
:1025900012F0CDEF12F0F6EF12F00150D96EDA6AB8
:1025A000DF2A0250D96EDA6A020EDF26DF5CD96EAE
:1025B000DA6A6F0078FF06F06F0078FF07F00CEF23
:1025C00013F00A0E06026F00CCFF03F06F00D0FF7D
:1025D00004F00702F350042605500324066E000E93
:1025E0000420076E0150D96EDA6ADF2A0150D96ED5
:1025F000DA6A6F007FFFF6FF200EF76E000EF86EAE
:102600000800F550D00F056E090E05640AEF13F0AF
:102610000CEF13F0E1EF12F006C001F007C002F07A
:102620001200010E1A6E4FC018F050C019F01C6A4B
:102630001F0E1B6E00017F6B42EF13F01B06D8A02C
:102640001C061B50600FD96EDA6A16C001F017C065
:1026500002F0046A0A0E036E45EC15F00150300FCB
:10266000DF6E1A6A1806D8A0190616C001F017C046
:1026700002F0046A0A0E036EA3EC14F001C016F017
:1026800002C017F01B501C10D8B449EF13F04BEFE9
:1026900013F05CEF13F016501710D8A452EF13F09C
:1026A00054EF13F01EEF13F01A50D8A45AEF13F0A2
:1026B0005CEF13F01EEF13F015C00EF01B50600F0F
:1026C0000F6E18C010F019C011F061EC14F0120078
:1026D0000350D8B46EEF13F070EF13F078EF13F0EF
:1026E0000350D8A476EF13F078EF13F07DEF13F0DA
:1026F0000150BBEC16F0BDEF13F00350D96EDA6A4F
:10270000090ED926DE50DE10D8B489EF13F08BEF16
:1027100013F0A4EF13F00350D96EDA6A090ED9262C
:102720000350E16EE26A020EE126DE50E65CE650FE
:10273000800A086EDE50800A0858D8B0A2EF13F065
:10274000A4EF13F0BDEF13F00350D96EDA6A020E56
:10275000D926DF50046E0350D96EDA6ADF500424A4
:10276000D96EDA6A600007F0DFFF0350D96EDA6ACB
:10277000020ED926DE2A000EDD221200000E156E92
:10278000000E166E000E176E000E186E115012100D
:1027900013101410D8B4CFEF13F0D1EF13F007EFEC
:1027A00014F0010E196EDBEF13F0D89011361236CB
:1027B00013361436192A14AEE0EF13F0E2EF13F0DB
:1027C000D5EF13F0D8901536163617361836115047
:1027D0000D5C12500E5813500F5814501058D8A0BA
:1027E000F4EF13F0F6EF13F0FFEF13F011500D5E5E
:1027F00012500E5A13500F5A1450105A1580D89078
:102800001432133212321132192EE2EF13F015C0C6
:102810000DF016C00EF017C00FF018C010F0120027
:10282000046A2DEF14F060000BF0F6FF60000FF06B
:10283000F7FF000EF86E1F0EF76403D00800F55086
:1028400007D06F00DBFFE1FF6F00DFFFE2FFE75023
:102850009FEC16F0024A032A042A60000BF0F6FFF0
:1028600060000FF0F7FF000EF86E1F0EF76403D044
:102870000800F55007D06F00DBFFE1FF6F00DFFFBE
:10288000E2FFE7500009D8B448EF14F04AEF14F023
:1028900058EF14F00F0E046450EF14F052EF14F0E0
:1028A00013EF14F058EF14F0200E9FEC16F0042AEA
:1028B0000F0E04645EEF14F060EF14F054EF14F0A8
:1028C000120055A066EF14F068EF14F06EEF14F0EC
:1028D0000FC009F00EC00AF0E3EC15F011BE75EF61
:1028E00014F073EF14F078EF14F0116A000E106E0C
:1028F000146A000E136E86EF14F0026A200E016E49
:102900000EC003F068EC13F0134A142A1050135C45
:102910001450800A126E1150800A1258D8A093EFFA
:1029200014F095EF14F07DEF14F055B09AEF14F019
:102930009CEF14F0A2EF14F00FC009F00EC00AF0E3
:10294000E3EC15F01200066A000E056E0350041049
:10295000D8B4ADEF14F0AFEF14F0D7EF14F0010ED0
:10296000076EB7EF14F0D89003360436072A04AE8A
:10297000BCEF14F0BEEF14F0B3EF14F0D8900536AE
:1029800006360350015C04500258D8A0CAEF14F078
:10299000CCEF14F0D1EF14F00350015E0450025A52
:1029A0000580D89004320332072EBEEF14F005C024
:1029B00001F006C002F01200000E096E000E0A6E51
:1029C000000E0B6E000E0C6E01A0E9EF14F0EBEFA1
:1029D00014F0F3EF14F00550092606500A220750B0
:1029E0000B2208500C22D8900536063607360836DA
:1029F000D890043203320232013201500210031027
:102A00000410D8A406EF15F008EF15F0E4EF14F069
:102A100009C001F00AC002F00BC003F00CC004F0C2
:102A2000120027EF15F028C020F029C021F0236AFA
:102A30000A0E226E8EEC11F00D0E2C6EFC0EE82E9E
:102A4000FED72C2EFCD70A0E2A5E000E2B5A2B50D6
:102A500007E10A0E2A5CD8B030EF15F032EF15F01E
:102A600013EF15F03BEF15F0C80E00D0E82EFDD7A0
:102A70002A06D8A02B062A502B10D8A442EF15F016
:102A800044EF15F034EF15F0120003500410D8B4E1
:102A90004CEF15F04EEF15F072EF15F0010E056ECC
:102AA00056EF15F0D89003360436052A04AE5BEFD6
:102AB00015F05DEF15F052EF15F00350015C045076
:102AC0000258D8A066EF15F068EF15F06CEF15F01E
:102AD0000350015E0450025AD89004320332052E8E
:102AE0005DEF15F001C001F002C002F012001A0EF5
:102AF000036EF80EE82EFED7032EFCD700D0BD9053
:102B0000BD92300EC3EC15F0070E036E7D0EE82E5D
:102B1000FED7032EFCD70000300EC3EC15F0320EAA
:102B2000E82EFED7300EC3EC15F0380EC3EC15F0CE
:102B30000C0EC3EC15F0060EC3EC15F0010EC3EC41
:102B400015F0120026C028F0AEEF15F025C01DF0DC
:102B5000280E1E6E27C01FF0FAEC10F06000A3F0E4
:102B6000F6FF200EF76E000EF86E0800F550000913
:102B7000D8A4BDEF15F0BFEF15F0A6EF15F0266A4B
:102B8000000E256E1200026EBD9060000BF0BBFFC0
:102B9000A7EC16F00204D8B4D0EF15F0D2EF15F080
:102BA000DBEF15F0020E0218D8A4D9EF15F0DBEF19
:102BB00015F0E2EF15F0030E016E980EE82EFED729
:102BC000012EFCD712000D6A000E0C6EF1EF15F00D
:102BD0000BC001F0026A0AC003F068EC13F00C4A63
:102BE0000D2A09500C24D96EDA6ADF500B6E0B5097
:102BF000D8A4FDEF15F0FFEF15F0E8EF15F0120087
:102C00002B0E2D6E29C02EF0316A000E306E386A00
:102C1000000E376E2E0E256E2AC026F02D0E276E62
:102C2000A2EC15F029503024D96EDA6ADF6A12005E
:102C3000046E0450D8A41FEF16F021EF16F027EF12
:102C400016F00350800FC3EC15F02BEF16F0035075
:102C5000C00FC3EC15F012003A01506B706B609B13
:102C6000C36ABB6AC590C592C48AC596BD96C5881D
:102C7000C59ABD9ABD6A120000EE60F0200EEE6AA1
:102C8000E806FDE100EE4FF0080EEE6AE806FDE111
:102C9000000129EF10F07A6A3F015E51F30B04093D
:102CA0005E6F026A320E016E8DEC16F08C0E7A6E3B
:102CB0001200550E3A01BF6FAA0EBF6FBF910A0EE8
:102CC000156F550EBF6FAA0EBF6FBF81120039017D
:102CD000A495AC8EA4A56FEF16F071EF16F06AEF15
:102CE00016F0A495C49A12006F00C0FE05F06F00A4
:102CF000C4FE06F00650036E0550016E03C002F0DC
:102D00001200010EAE6EAD6AAF6AAA6A3901A495CF
:102D10009B0EAB6E700EAC6E1200FF0E0116030E12
:102D200002160250796E600007F078FF1200010E63
:102D3000B56EB36A020EB26EB16AB06A1200016E6D
:102D4000BD80600007F0BBFFA7EC16F01200BD824B
:102D500000D0BD92100EE82EFED700D01200025017
:102D6000B16E600007F0B0FF1200600E3901D96F3C
:082D7000020EDF6F12001200D9
:020000040001F9
:04FFFC003CEF16F0D0
:020000040030CA
:0A000000E8FFFFF79FFFFFFFFFFF7F
:00000001FF
