:0400000057EF00F0C6
:100008002B002B002B002B002B002B002B00C608ED
:100018002B002B002B002B002B002B002B002B0080
:100028002B002B002B002B002B002B002B002B0070
:100038002B002B002B002B002B002B002B002B0060
:100048002B002B002B002B002B002B002B002B0050
:100058002B002B002B002B002B002B002B002B0040
:100068002B002B002B002B002B002B002B002B0030
:100078002B002B002B002B002B002B002B002B0020
:100088002B002B002B002B002B002B002B002B0010
:100098002B002B002B002B002B002B002B002B0000
:0A00A8002B002B00FF00B8EF11F051
:10200000003F065B4F666D7D077F670011EC12F0A5
:10201000126E07EC12F0136E0950D8B412EF10F0E4
:1020200014EF10F015EF10F009060850D8B41BEFAC
:1020300010F01DEF10F08AEF10F008068AEF10F094
:102040001250D8B426EF10F028EF10F049EF10F03E
:102050000750D8A42EEF10F030EF10F049EF10F039
:102060000950D8A436EF10F038EF10F049EF10F017
:10207000040E0B603EEF10F040EF10F044EF10F054
:102080000B2A0B5070EC11F0046A000E036E060E62
:10209000096E0B50D8B44FEF10F051EF10F09FEFD6
:1020A00010F0034A042A9FEF10F01350D8B45BEFEE
:1020B00010F05DEF10F07EEF10F00650D8A463EF43
:1020C00010F065EF10F07EEF10F00850D8A46BEF21
:1020D00010F06DEF10F07EEF10F0040E0A6073EF59
:1020E00010F075EF10F079EF10F00A2A0A5070EC3A
:1020F00011F0026A000E016E060E086E0A50D8B486
:1021000084EF10F086EF10F09FEF10F0014A022AE2
:102110009FEF10F00550106E116A1150000AD8B4EC
:1021200094EF10F09FEF10F01050000AD8B420EF99
:1021300010F0010AD8B455EF10F09FEF10F012C064
:1021400007F013C006F01200FFEF10F00B50D8B4E8
:10215000ACEF10F0AEEF10F024EF11F0045009E1F5
:10216000960E035CD8A0B7EF10F0B9EF10F024EF93
:1021700011F0010E056E026A000E016E24EF11F0DF
:102180000A50D8B4C6EF10F0C8EF10F024EF11F0E9
:10219000025009E1960E015CD8A0D1EF10F0D3EF08
:1021A00010F024EF11F0020E056E24EF11F0030E73
:1021B0000B18D8A4DEEF10F0E0EF10F0EDEF10F008
:1021C000020E0A18D8A4E7EF10F0E9EF10F0EDEFD7
:1021D00010F0030E056E24EF11F0040E056E24EFCF
:1021E00011F0E2EC11F025EC12F024EF11F0D5EC37
:1021F00011F0F3EF10F025EC11F024EF11F0055081
:10220000106E116A1150000AD8B409EF11F0F3EF03
:1022100010F01050000AD8B4A6EF10F0010AD8B49C
:10222000C0EF10F0030AD8B4D7EF10F0010AD8B409
:10223000F1EF10F0070AD8B4F7EF10F0010AD8B4A4
:10224000FBEF10F0F3EF10F012000F6A35EC12F014
:10225000020E0E6E040E0D6EBA0EE82EFED70D2E77
:10226000FCD70E2EFAD700D037EC12F0020E0E6E0D
:10227000040E0D6EBA0EE82EFED70D2EFCD70E2ED4
:10228000FAD700D00F2A040E0F6449EF11F04BEF7C
:1022900011F026EF11F00C6A25EC12F01200FCECA4
:1022A00011F025EC12F02DEC12F00C50D8B45BEFCD
:1022B00011F05DEF11F061EF11F025EC11F055EF29
:1022C00011F006EC10F0A4EC10F00D0E146EFC0EE4
:1022D000E82EFED7142EFCD755EF11F057EF00F083
:1022E0000F6E0E6A0A0E0F6078EF11F07AEF11F0A0
:1022F00088EF11F00F50010F0D6E600037F0F6FF00
:10230000200EF76E000EF86E08006F00D4FF0EF07E
:1023100060003BF0BDFF12003901A0AF92EF11F059
:1023200094EF11F0A3EF11F03A0157A19AEF11F0D9
:102330009CEF11F0A3EF11F057913901A09F010E0E
:102340000C6E050E056E1100AAEF11F0C80E00D03C
:10235000E82EFDD70D06D8A00E060D2806E10E28A2
:10236000D8A4B5EF11F0B7EF11F0A6EF11F01200FD
:1023700000EE01F00C0EEE6AE806FDE1080ED56EE7
:10238000000ED66E000ED76E00014FEF11F03A012D
:10239000506B706BC396C382C384C380C39AC39EC1
:1023A000C56ABB6ABD6A5181120035EC12F0070E96
:1023B0000E6ED00E0D6EA4EC11F037EC12F031EC75
:1023C00012F012002FEC12F0070E0E6ED00E0D6EF2
:1023D000A4EC11F033EC12F031EC12F012000B6AA5
:1023E0000A6A046A000E036E026A000E016E096A30
:1023F000086A076A066A1200C7EC11F01BEC12F0BB
:1024000033EC12F037EC12F031EC12F01200CBA4E6
:102410000CEF12F00FEF12F0010E10EF12F0000EA1
:102420001200CBA216EF12F019EF12F0010E1AEF04
:1024300012F0000E12003A01568155915791390160
:10244000A09F908FD28ED28C1200EFEC11F0056A13
:1024500031EC12F033EC12F01200BB861200BB9A82
:102460001200BD6A1200BB8A1200BB8E1200BB9E16
:02247000120058
:020000040030CA
:0A000000F8FFFFFF9FFFFFFFFFFF67
:00000001FF
