:0400000010EF00F00D
:10002000206AE86A6DD876D8CB6A7ED8600083F003
:06003000CDFF15EF00F00A
:100100003F01CD6A3F01BD6A3A01706B3F01000EAD
:10011000C56E12003F01CB6A3F01BB6A3A01506BCA
:100120003F01FF0EC36E12002050CBA8A3EF00F0DA
:10013000CBB0010ECBB2040ECBB4070ECBB60F0E74
:10014000CB98CBEF00F0CBAAB1EF00F0CBB0020E12
:10015000CBB2050ECBB4080ECBB6000ECB9ACBEFCC
:1001600000F0CBACBFEF00F0CBB0030ECBB2060E6D
:10017000CBB4090ECBB60E0ECB9CCBEF00F0CBAEC2
:10018000CBEF00F0CBB00A0ECBB20B0ECBB40C0E03
:0A019000CBB60D0ECB9E206E1200C0
:020000040030CA
:0A000000F8FFFFFF9FFFFFFFFFFF67
:00000001FF
